{
  "_format": "hh-sol-artifact-1",
  "contractName": "Lock",
  "sourceName": "contracts/Lock.sol",
  "abi": [
    {
      "inputs": [],
      "stateMutability": "nonpayable",
      "type": "constructor"
    },
    {
      "inputs": [],
      "name": "getAddress",
      "outputs": [
        {
          "internalType": "address",
          "name": "",
          "type": "address"
        }
      ],
      "stateMutability": "view",
      "type": "function"
    },
    {
      "inputs": [],
      "name": "getNumber",
      "outputs": [
        {
          "internalType": "uint256",
          "name": "",
          "type": "uint256"
        }
      ],
      "stateMutability": "view",
      "type": "function"
    },
    {
      "inputs": [],
      "name": "myaddress",
      "outputs": [
        {
          "internalType": "address",
          "name": "",
          "type": "address"
        }
      ],
      "stateMutability": "view",
      "type": "function"
    },
    {
      "inputs": [],
      "name": "number",
      "outputs": [
        {
          "internalType": "uint256",
          "name": "",
          "type": "uint256"
        }
      ],
      "stateMutability": "view",
      "type": "function"
    },
    {
      "inputs": [
        {
          "internalType": "uint256",
          "name": "_number",
          "type": "uint256"
        }
      ],
      "name": "setNumber",
      "outputs": [],
      "stateMutability": "nonpayable",
      "type": "function"
    }
  ],
  "bytecode": "0x608060405234801561001057600080fd5b506000808190555033600160006101000a81548173ffffffffffffffffffffffffffffffffffffffff021916908373ffffffffffffffffffffffffffffffffffffffff16021790555061027d806100686000396000f3fe608060405234801561001057600080fd5b50600436106100575760003560e01c806338cc48311461005c5780633fb5c1cb1461007a5780638381f58a14610096578063f2c9ecd8146100b4578063fcf814c3146100d2575b600080fd5b6100646100f0565b604051610071919061019a565b60405180910390f35b610094600480360381019061008f91906101f0565b61011a565b005b61009e610124565b6040516100ab919061022c565b60405180910390f35b6100bc61012a565b6040516100c9919061022c565b60405180910390f35b6100da610133565b6040516100e7919061019a565b60405180910390f35b6000600160009054906101000a900473ffffffffffffffffffffffffffffffffffffffff16905090565b8060008190555050565b60005481565b60008054905090565b600160009054906101000a900473ffffffffffffffffffffffffffffffffffffffff1681565b600073ffffffffffffffffffffffffffffffffffffffff82169050919050565b600061018482610159565b9050919050565b61019481610179565b82525050565b60006020820190506101af600083018461018b565b92915050565b600080fd5b6000819050919050565b6101cd816101ba565b81146101d857600080fd5b50565b6000813590506101ea816101c4565b92915050565b600060208284031215610206576102056101b5565b5b6000610214848285016101db565b91505092915050565b610226816101ba565b82525050565b6000602082019050610241600083018461021d565b9291505056fea264697066735822122081a23e50b0375c81b8ddf6192ee01d01381d85f95b85b584185c01be8c575a8e64736f6c63430008120033",
  "linkReferences": {},
  "deployedLinkReferences": {}
}